{
  "contractName": "Blackjack",
  "abi": [
    {
      "inputs": [],
      "payable": true,
      "stateMutability": "payable",
      "type": "constructor"
    },
    {
      "anonymous": false,
      "inputs": [
        {
          "indexed": false,
          "internalType": "bool",
          "name": "win",
          "type": "bool"
        }
      ],
      "name": "Won",
      "type": "event"
    },
    {
      "constant": false,
      "inputs": [],
      "name": "betAndWin",
      "outputs": [],
      "payable": true,
      "stateMutability": "payable",
      "type": "function"
    },
    {
      "constant": true,
      "inputs": [],
      "name": "getBankBalance",
      "outputs": [
        {
          "internalType": "uint256",
          "name": "ret",
          "type": "uint256"
        }
      ],
      "payable": false,
      "stateMutability": "view",
      "type": "function"
    },
    {
      "constant": true,
      "inputs": [],
      "name": "showHand",
      "outputs": [
        {
          "internalType": "uint256",
          "name": "",
          "type": "uint256"
        }
      ],
      "payable": false,
      "stateMutability": "view",
      "type": "function"
    },
    {
      "constant": false,
      "inputs": [],
      "name": "createRandomCard",
      "outputs": [
        {
          "internalType": "uint256",
          "name": "",
          "type": "uint256"
        }
      ],
      "payable": false,
      "stateMutability": "nonpayable",
      "type": "function"
    }
  ],
  "bytecode": "0x608060405260126002556103af806100186000396000f3fe60806040526004361061003f5760003560e01c80637b83b50b14610044578063d8568e611461006f578063e92927571461009a578063fb3f7766146100a4575b600080fd5b34801561005057600080fd5b506100596100cf565b6040518082815260200191505060405180910390f35b34801561007b57600080fd5b506100846100ee565b6040518082815260200191505060405180910390f35b6100a26100f7565b005b3480156100b057600080fd5b506100b9610286565b6040518082815260200191505060405180910390f35b60003073ffffffffffffffffffffffffffffffffffffffff1631905090565b60008054905090565b60003390506000349050600060028202905060006101136100cf565b90506000831161018b576040517f08c379a00000000000000000000000000000000000000000000000000000000081526004018080602001828103825260168152602001807f4e6f206d6f6e657920616464656420746f206265742e0000000000000000000081525060200191505060405180910390fd5b808211156101e4576040517f08c379a00000000000000000000000000000000000000000000000000000000081526004018080602001828103825260268152602001806103556026913960400191505060405180910390fd5b60008015156101f16102a7565b15151490508015610244578473ffffffffffffffffffffffffffffffffffffffff166108fc849081150290604051600060405180830381858888f19350505050158015610242573d6000803e3d6000fd5b505b7f58dda350a596f141b8edbfa563da073317c6c653b9f13221ff8a9cf43ab694fa81604051808215151515815260200191505060405180910390a15050505050565b6000806102916102d5565b9050806000540160008190555060005491505090565b600080600090506002546000541180156102c45750601560005411155b156102ce57600190505b8091505090565b600080444142604051602001808481526020018373ffffffffffffffffffffffffffffffffffffffff1673ffffffffffffffffffffffffffffffffffffffff1660601b815260140182815260200193505050506040516020818303038152906040528051906020012060001c9050600b818161034d57fe5b069150509056fe4e6f7420656e6f756768206d6f6e657920696e2062616e6b20666f722074686973206265742ea265627a7a7231582058bb7f9a85a2e51ba5b1484396cfa39ec3fc1842dcfa34c1675182ec51a7626464736f6c634300050c0032",
  "source": "pragma solidity >=0.5.0 <0.7.0;\n/** @author Sander Heij\n    @title Blackjack game\n*/\ncontract Blackjack {\n    event Won(bool win)  ;   // declaring event\n    /// Setup an intial amount for the bank, supplied during the creation of the contract.\n    constructor() public payable {\n    }\n    uint totalInHand;\n    uint randCardCopy;\n    uint dealer = 18;\n    /** Perform the bet and pay out if you win\n        @dev several temporary variables are created to make debugging easier\n    */\n    function betAndWin() public payable  { // returning value isn't easy to retreive\n        address payable betPlacer = address(msg.sender);\n        uint bet = msg.value;\n        uint payout = bet * 2;\n        uint balance = getBankBalance();\n        require(bet > 0, \"No money added to bet.\");\n        require(payout <= balance, \"Not enough money in bank for this bet.\"); // bet has already been added to bank balance\n        bool win = _result() == false;\n        if (win)\n            betPlacer.transfer(payout);\n        emit Won(win);// logging event\n    }\n    function _result() private view returns(bool) {\n      bool win = false;\n        if (totalInHand > dealer && totalInHand <= 21)\n          win = true;\n        return win;\n    }\n    /** Check the balance of the bank\n        @return the balance\n    */\n    function getBankBalance() public view returns(uint256 ret) {\n        return address(this).balance;\n    }\n  \t/** Add the random card to the hand of the user\n    */\n  \tfunction showHand() public view returns (uint) {\n  \t    return totalInHand;\n    }\n    /** Draw a random card between 1 and 11\n        @return a pseudo random card\n    */\n    function _getRandomCard() private view returns(uint) {\n        uint rand = uint(keccak256(abi.encodePacked(block.difficulty, block.coinbase, block.timestamp)));\n        return rand % 11;\n    }\n    /** Create and add a random card\n    */\n    function createRandomCard() public returns (uint) {\n        uint randCard = _getRandomCard();\n        //add the card to the hand\n        totalInHand = totalInHand + randCard;\n        return totalInHand;\n    }\n}\n",
  "sourcePath": "/home/sanderheij/Documents/casino/contracts/Blackjack_0.1.sol",
  "compiler": {
    "name": "solc",
    "version": "0.5.12+commit.7709ece9.Emscripten.clang"
  },
  "schemaVersion": "3.0.19",
  "updatedAt": "2019-12-09T11:16:07.092Z",
  "devdoc": {
    "author": "Sander Heij",
    "methods": {
      "betAndWin()": {
        "details": "several temporary variables are created to make debugging easier"
      },
      "getBankBalance()": {
        "return": "the balance"
      }
    },
    "title": "Blackjack game"
  },
  "userdoc": {
    "methods": {
      "betAndWin()": {
        "notice": "Perform the bet and pay out if you win"
      },
      "constructor": "Setup an intial amount for the bank, supplied during the creation of the contract.",
      "createRandomCard()": {
        "notice": "Create and add a random card"
      },
      "getBankBalance()": {
        "notice": "Check the balance of the bank"
      },
      "showHand()": {
        "notice": "Add the random card to the hand of the user"
      }
    }
  }
}